:0400000007EF00F016
:100008005982C9ED11F023EF16F0A30E0001AF6F6E
:10001800000E0001B06F96EF05F0250E0001C4191F
:10002800D8B408D09FC0D9FFA0C0DAFFC4C0DFFF92
:1000380093EF05F0000E0001BE6F000EBD6F000EBD
:100048000001BC6F000EBB6F05D00001BB8500012D
:10005800A14BA22BA1C0F6FFA2C0F7FF0800F550E4
:10006800300AD8B4F2D7A1C0F6FFA2C0F7FF080043
:10007800F550D5EC17F0D8A040D0000E0001BE6FA7
:10008800000EBD6FBDC06EF0BEC06FF0000E000167
:10009800716F0A0E706F6FEC17F06EC0BDF06FC015
:1000A800BEF0D00E0001A66FFF0E0001A76FA1C021
:1000B800F6FFA2C0F7FF0800F5500001A86FA96B72
:1000C8000001A6510001A8270001A7510001A9239A
:1000D8000001A8510001BD270001A9510001BE235C
:1000E8000001A14BA22BA1C0F6FFA2C0F7FF080098
:1000F800F550D5EC17F0D8B0C5D7A1C0F6FFA2C00F
:10010800F7FF0800F5502E0AD8A439D00001BC8D9D
:100118000001A14BA22B000E0001C36F000EC26F9D
:1001280023D0C2C06EF0C3C06FF0000E0001716F23
:100138000A0E706F6FEC17F0A1C0F6FFA2C0F7FFB0
:100148000800F55000016E27000E00016F23D00E45
:1001580000016E250001C26FFF0E00016F21000132
:10016800C36F0001A14BA22BA1C0F6FFA2C0F7FFED
:100178000800F550D5EC17F0D8A00CD0D2D7000E57
:100188000001C36F000EC26F0001BC8903D00001DB
:10019800BC8515D0A1C0F6FFA2C0F7FF0001A14B96
:1001A800A22B0800F5CFC4F00001C451000AD8B44E
:1001B800A5EF05F0660AD8B4EAD796EF05F0070E62
:1001C8000001BC15D8B4B1D30001BCA905D0000EFC
:1001D8000001C36F060EC26FAFC0D9FFB0C0DAFF0F
:1001E800DECFBFF0DECFC0F0DDCFC1F0030E0001DF
:1001F800AF27000EB0230001C1AF11D0BFC060F01F
:10020800C0C061F0C1C062F0BDEC17F060C0BFF0C3
:1002180061C0C0F062C0C1F0030E0001BB13000E44
:100228000001BA6F000EB96F0001BF510001C01183
:100238000001C111D8B49BD0820E0001A66FFF0E39
:100248000001A76FBFC0A8F0C0C0A9F0C1C0AAF044
:10025800C2C0ABF0100E06D00001D890AB33AA3361
:10026800A933A833E82EF8D70001A8510001A62524
:100278000001B96F000E0001A7210001BA6F00014B
:10028800B907D8A0BA07B9C06EF0BAC06FF0000EAF
:100298000001716F030E706F6FEC17F06EC0B9F04C
:1002A8006FC0BAF0B9C066F0BAC067F0000E0001BE
:1002B800696F0A0E686F33EC14F066C0B9F067C056
:1002C800BAF00001BAAF04D00001B907D8A0BA0744
:1002D8000001B951000890EC08F083C0B5F084C063
:1002E800B6F085C0B7F0B5C074F0B6C075F0B7C049
:1002F80076F0BFC077F0C0C078F0C1C079F0DAEC12
:100308000FF074C0B5F075C0B6F076C0B7F0B5C0E0
:1003180060F0B6C061F0B7C062F0000E0001636F14
:10032800800E0001646F3F0E0001656FCFEC13F083
:100338000001D8B005D00001B907D8A0BA0717D076
:10034800B5C060F0B6C061F0B7C062F0000E000141
:10035800636F200E0001646F410E0001656FCFECE2
:1003680013F00001D8A003D00001B94BBA2B00014B
:10037800C3BF08D00001C3511DE10D0E0001C25DCD
:10038800D8B018D0BFC08DF0C0C08EF0C1C08FF0FB
:100398000001C251E7EC0AF083C090F084C091F0EC
:1003A80085C092F03DEC0CF08DC0BFF08EC0C0F05F
:1003B8008FC0C1F00001BABF08D00001BA512AE1CC
:1003C8000A0E0001B95DD8B025D00001BF51000167
:1003D800C0110001C111D8B463D0BFC08AF0C0C039
:1003E8008BF0C1C08CF089EC10F000018A5100013B
:1003F8008B1100018C1100018D11D8A451D000017E
:10040800BABF4ED00001BA5105E1020E0001B95D34
:10041800D8A046D0B5C060F0B6C061F0B7C062F0F1
:10042800700E0001636F890E0001646F400E0001B9
:10043800656FCFEC13F00001D8B003D00001F70EC0
:1004480002D00001F80EB927FF0EBA230001B951F6
:1004580090EC08F083C0B5F084C0B6F085C0B7F062
:10046800BFC060F0C0C061F0C1C062F0B5C063F049
:10047800B6C064F0B7C065F047EC0EF060C0B1F0EC
:1004880061C0B2F062C0B3F063C0B4F0000E000106
:10049800BF6F000E0001C06F000E0001C16F33D0A6
:1004A800BFC08AF0C0C08BF0C1C08CF089EC10F0DE
:1004B8008AC0B1F08BC0B2F08CC0B3F08DC0B4F07C
:1004C800BFC099F0C0C09AF0C1C09BF0B1C068F03D
:1004D800B2C069F0B3C06AF0B4C06BF0E5EC15F0D7
:1004E80068C09CF069C09DF06AC09EF008EC17F0E7
:1004F80099C0BFF09AC0C0F09BC0C1F0000E0001C7
:10050800BA6F000EB96F010E0001C46F0A0E000128
:10051800C419D8B41ED00001C451040D170EF32419
:10052800F66E7E0EF420F76E0900F5500001B15DFD
:100538000900F5500001B2590900F5500001B359FE
:100548000900F5500001B459D8A003D00001C42B0C
:10055800DDD7C4C0A6F00001A76BA6BFA70700019E
:10056800C2510001A6270001C3510001A7230001C1
:10057800B9510001A6270001BA510001A7230001C3
:10058800A6510001BD5F0001A7510001BE5B00013B
:10059800C2510001C311D8B404D00001BD07D8A0CE
:1005A800BE07030E0001BB150001A66F000E000177
:1005B800BC150001A76F0001A6510001A711D8B40E
:1005C80004D00001BD07D8A0BE070001BBA53FD0DD
:1005D800030E0001BB150001A66F000E0001BC153B
:1005E8000001A76F0001A6510001A711D8B417D0C8
:1005F8009FC0D9FFA0C0DAFF2D0EDF6E00019F4B10
:10060800A02B0DD09FC0D9FFA0C0DAFF300EDF6E3F
:1006180000019F4BA02B0001BD07D8A0BE07000119
:10062800BEBF84D00001BE51EDE10001BD05D8A0D8
:100638007DD0E8D79FC0D9FFA0C0DAFF200EDF6EBB
:1006480000019F4BA02B0001BD07D8A0BE070001E9
:10065800BEBF07D00001BE51EDE10001BD05D8B015
:10066800E9D7030E0001BB150001A66F000E0001BB
:10067800BC150001A76F0001A6510001A711D8B44D
:1006880055D09FC0D9FFA0C0DAFF2D0E4DD0000174
:100698009F4BA02B4BD0B1C060F0B2C061F0B3C08B
:1006A80062F0B4C063F00001C451040D170EF324C6
:1006B800F66E7E0EF420F76E0900F5CF64F009009F
:1006C800F5CF65F00900F5CF66F00A00F5CF67F0C1
:1006D80092EC14F060C0B5F061C0B6F062C0B7F03B
:1006E80063C0B8F0B5C060F0B6C061F0B7C062F0E2
:1006F800B8C063F00A0E0001646F000E656F000E4B
:10070800666F000E676F98EC15F060C0B5F061C0B9
:10071800B6F062C0B7F063C0B8F00001B551300F51
:100728009FC0D9FFA0C0DAFFDF6EB1D70001C407B0
:100738000001C429D8B40ED0AED79FC0D9FFA0C03D
:10074800DAFF300EDF6E00019F4BA02B0001B907C6
:10075800D8A0BA070001BABF07D00001BA51EDE12D
:100768000001B905D8B0E9D70001C3BF0CD000011A
:10077800C35105E1090E0001C25DD8A004D0080EDE
:100788000001C46F02D0C2C0C4F00001C45100010E
:10079800C25F000E0001C4BFFF0E0001C35B000171
:1007A800C4510001D8B409D09FC0D9FFA0C0DAFF56
:1007B8002E0EDF6E00019F4BA02B0001C45190EC60
:1007C80008F083C0ACF084C0ADF085C0AEF0BFC007
:1007D80077F0C0C078F0C1C079F0ACC074F0ADC09B
:1007E80075F0AEC076F0DAEC0FF074C08AF075C020
:1007F8008BF076C08CF089EC10F08AC0B1F08BC019
:10080800B2F08CC0B3F08DC0B4F074D0B1C060F059
:10081800B2C061F0B3C062F0B4C063F00001C4516B
:10082800040D170EF324F66E7E0EF420F76E090001
:10083800F5CF64F00900F5CF65F00900F5CF66F053
:100848000A00F5CF67F092EC14F060C0B5F061C013
:10085800B6F062C0B7F063C0B8F0B5C060F0B6C01B
:1008680061F0B7C062F0B8C063F00A0E0001646FAF
:10087800000E656F000E666F000E676F98EC15F03E
:1008880060C0B5F061C0B6F062C0B7F063C0B8F040
:100898000001B551300F9FC0D9FFA0C0DAFFDF6E4D
:1008A80000019F4BA02BB1C060F0B2C061F0B3C093
:1008B80062F0B4C063F00001C451040D170EF324B4
:1008C800F66E7E0EF420F76E0900F5CF64F009008D
:1008D800F5CF65F00900F5CF66F00A00F5CF67F0AF
:1008E80098EC15F060C0B1F061C0B2F062C0B3F02E
:1008F80063C0B4F00001C4070001C429D8B40ED005
:1009080085D79FC0D9FFA0C0DAFF300EDF6E000187
:100918009F4BA02B0001C207D8A0C3070001C251FA
:100928000001C311D8B4FED0ECD70001C2510001B8
:10093800C311D8A40DD00001B1510001B2110001BA
:10094800B3110001B411D8A403D00001C24BC32BCA
:10095800800E0001C4BF7F0E0001A66F0001C251C6
:100968000001C45D0001C351800A0001A659D8B036
:1009780003D0C2C0C4F018D00001C351800A0001DE
:10098800A66F0001C4510001C25D800E0001C4BF02
:100998007F0E0001A659D8B007D00001C45100014C
:1009A800C26FC36BC2BFC3070001BD510001BE11B6
:1009B800D8B414D0030E0001BB150001A66F000EB9
:1009C8000001BC150001A76F0001A6510001A71185
:1009D800D8B404D00001BD07D8A0BE070001BCAD43
:1009E8001ED00001BD510001C25D0001C351800A43
:1009F8000001A66F0001BE51800A0001A659D8B0B7
:100A080009D00001C2510001BD5F0001C3510001BE
:100A1800BE5B05D0000E0001BE6F000EBD6F800EDC
:100A28000001C4BF7F0E0001A66F0001BD51000187
:100A3800C45D0001BE51800A0001A659D8B00BD090
:100A48000001C4510001BD5F000E0001C4BFFF0ECC
:100A58000001BE5B05D0000E0001BE6F000EBD6F29
:100A68000001BBA52DD0030E0001BB150001A66F28
:100A7800000E0001BC150001A76F0001A65100017E
:100A8800A711D8B409D09FC0D9FFA0C0DAFF2D0E96
:100A9800DF6E00019F4BA02B0001BD510001BE116C
:100AA800D8B440D09FC0D9FFA0C0DAFF300EDF6EA7
:100AB80000019F4BA02B0001BD07D8A0BE07ECD7B3
:100AC8000001BD510001BE11D8B413D09FC0D9FF99
:100AD800A0C0DAFF200EDF6E00019F4BA02B0001A3
:100AE800BD07D8A0BE070001BD510001BE11D8A4A2
:100AF800EDD7030E0001BB150001A66F000E000123
:100B0800BC150001A76F0001A6510001A711D8B4B8
:100B180009D09FC0D9FFA0C0DAFF2D0EDF6E0001FB
:100B28009F4BA02BA1C0F6FFA2C0F7FF0001A14B6D
:100B3800A22B0800F5CFC4F00001C451D8A411EFCE
:100B480000F09FC0D9FFA0C0DAFF000EDF6E1200D0
:100B5800720ED36EA4EC17F0EAEC17F0F19E9268CF
:100B68008068000E946E000E8B6E000E826E070E6B
:100B7800966E000E0001DE6F000EDD6F000E0001A4
:100B8800DB6F000EDA6F20EEDFF010EED3F0060E0A
:100B9800DBCFE3FFE806FCE220EEE6F010EEC5F05E
:100BA800060EDBCFE3FFE806FCE220EEF3F010EEE2
:100BB800CCF0060EDBCFE3FFE806FCE2000E0001F6
:100BC800DC6FC28280B2FDD003EC18F0800E86EC98
:100BD80016F0000E0001686F7F0E0001696FDEECF1
:100BE80016F0C00E86EC16F019D02BEC11F00001AF
:100BF800DC6F0001DC510001D8B410D0D30E000125
:100C0800DD25D96E000E0001DE21DA6EDCC0DFFFC3
:100C18002A0E59EC16F00001DD4BDE2B0001DEBF79
:100C2800E4D70001DE5105E1060E0001DD5DD8A024
:100C3800DCD7000E0001DE6F000EDD6F000E000134
:100C4800D96FD30E0001606F000E0001616FCC0EEA
:100C58000001626F000E0001636FB3EC16F0000133
:100C6800605100016111D8A470D0000E0001DB6F43
:100C7800000EDA6F8B84C00E86EC16F0E60E0001CB
:100C8800686F7E0E0001696FDEEC16F0800E86EC50
:100C980016F0000E00019F6F010E0001A06FB90E43
:100CA8000001A16F7F0E0001A26FEDC0A3F0EEC09E
:100CB800A4F0EFC0A5F009EC00F0000E0001686F89
:100CC800010E0001696FDEEC16F0000E0001606F86
:100CD800E80E0001616F410E0001626FEDC063F024
:100CE800EEC064F0EFC065F0CFEC13F00001D8B0AF
:100CF8000DD08B8CC00E86EC16F0340E0001686F98
:100D08007F0E0001696FDEEC16F00CD08B9CC00ED4
:100D180086EC16F01A0E0001686F7F0E0001696FED
:100D2800DEEC16F00B0E0001616FB80E606F2EEC52
:100D380017F08B808B92130E0001616F880E606F25
:100D48002EEC17F08B908B923CD00001DA4BDB2B0A
:100D58000001DBBF24D00001DB5105E1030E0001D7
:100D6800DA5DD8A01CD0C00E86EC16F0CA0E0001C1
:100D7800686F7E0E0001696FDEEC16F0070E000149
:100D8800616FD00E606F2EEC17F08B8E0B0E00018A
:100D9800616FB80E606F2EEC17F08B9E12D0C00EEC
:100DA80086EC16F0650E0001686F7F0E0001696F12
:100DB800DEEC16F0070E0001616FD00E606F2EECAE
:100DC80017F080A48B9484A48B8480B60BD08B906E
:100DD8008B82130E0001616F880E606F2EEC17F086
:100DE8008B908B9280B80BD08B808B92130E000166
:100DF800616F880E606F2EEC17F08B908B9284A039
:100E08008B8C84A28B9C80BA47D103EC18F0800E9F
:100E180086EC16F07B0E0001686F7F0E0001696F8B
:100E2800DEEC16F0C00E86EC16F019D02BEC11F0A3
:100E38000001DC6F0001DC510001D8B410D0D30EE2
:100E48000001DD25D96E000E0001DE21DA6EDCC05E
:100E5800DFFF2A0E59EC16F00001DD4BDE2B0001F6
:100E6800DEBFE4D70001DE5105E1060E0001DD5DBD
:100E7800D8A0DCD7000E0001DE6F000EDD6F000E7B
:100E88000001D96F03EC18F0D30E0001606F000E5B
:100E98000001616FCC0E0001626F000E0001636FEC
:100EA800B3EC16F00001605100016111D8A4D5D04F
:100EB800800E86EC16F0AC0E0001686F7E0E000105
:100EC800696FDEEC16F0C00E86EC16F019D02BEC2C
:100ED80011F00001DC6F0001DC510001D8B410D022
:100EE800CC0E0001DD25D96E000E0001DE21DA6E80
:100EF800DCC0DFFF2A0E59EC16F00001DD4BDE2BBB
:100F08000001DEBFE4D70001DE5105E1060E000155
:100F1800DD5DD8A0DCD7000E0001DE6F000EDD6FAE
:100F2800000E0001D26F03EC18F0800E86EC16F06C
:100F38008D0E0001686F7E0E0001696FDEEC16F001
:100F4800C00E86EC16F019D02BEC11F00001DC6F06
:100F58000001DC510001D8B410D0C50E0001DD2518
:100F6800D96E000E0001DE21DA6EDCC0DFFF2A0E2A
:100F780059EC16F00001DD4BDE2B0001DEBFE4D793
:100F88000001DE5105E1060E0001DD5DD8A0DCD7C9
:100F9800000E0001DE6F000EDD6F000E0001CB6F4A
:100FA800C50E0001606F000E0001616FCC0E0001DC
:100FB800626F000E0001636FB3EC16F00001605120
:100FC80000016111D8A415D003EC18F0800E86EC4E
:100FD80016F0A50E0001686F7F0E0001696FDEEC48
:100FE80016F0070E0001616FD00E606F2EEC17F03F
:100FF80053D003EC18F0800E86EC16F04D0E00016D
:10100800686F7F0E0001696FDEEC16F0050E0001B7
:10101800616FDC0E606F2EEC17F003EC18F0800E99
:1010280086EC16F0ED0E0001686F7F0E0001696F07
:10103800DEEC16F0C00E86EC16F0900E0001686F1C
:101048007F0E0001696FDEEC16F00B0E0001616F78
:10105800B80E606F2EEC17F01FD003EC18F0800E5E
:1010680086EC16F0ED0E0001686F7F0E0001696FC7
:10107800DEEC16F0C00E86EC16F0900E0001686FDC
:101088007F0E0001696FDEEC16F00B0E0001616F38
:10109800B80E606F2EEC17F0800E86EC16F0DC0EA2
:1010A8000001686F7F0E0001696FDEEC16F0C00E5C
:1010B80086EC16F0CB0E0001686F7F0E0001696F99
:1010C800DEEC16F0000E0001DE6F000EDD6FD30EB1
:1010D8000001606F000E0001616F000E0001636F78
:1010E800000E626F000E0001656F060E646F8AECD9
:1010F80017F0000E0001606F010E0001616F000E15
:101108000001636F000E626F000E0001656F320E02
:10111800646F8AEC17F055D50001896F000189AF1B
:101128002AD10001896D00018951800A120FD8A0C7
:10113800ACD0000E0001716F030E706F000E00013D
:10114800696F0A0E686F000E0001636F640E626FAC
:10115800000189510001606F616B60BF610747EC56
:1011680015F060C066F061C067F033EC14F0090E4A
:101178000001662500016E6F000E00016721000165
:101188006F6F6FEC17F03F0E00016E25F66E7E0E46
:1011980000016F21F76E0900F5CF77F00900F5CF50
:1011A80078F00A00F5CF79F0000E0001696F640E3F
:1011B800686F000189510001666F676B66BF67073A
:1011C80033EC14F0120E0001662500016E6F000E5C
:1011D8000001672100016F6F000E0001716F030E9F
:1011E800706F6FEC17F03F0E00016E25F66E7E0EE5
:1011F80000016F21F76E0900F5CF74F00900F5CFF3
:1012080075F00A00F5CF76F0DAEC0FF074C086F0CE
:1012180075C087F076C088F086C074F087C075F016
:1012280088C076F0000E0001716F030E706F000E1B
:101238000001636F0A0E626F000189510001606F3F
:10124800616B60BF610747EC15F060C06EF061C06C
:101258006FF06FEC17F03F0E00016E25F66E7E0EF4
:1012680000016F21F76E0900F5CF77F00900F5CF7F
:1012780078F00A00F5CF79F0DAEC0FF074C083F05B
:1012880075C084F076C085F0120000018951800A8B
:10129800750FD8A05DD0000E0001696F0A0E686F47
:1012A800000189510001666F676B66BF670733EC01
:1012B80014F0090E0001662500016E6F000E000192
:1012C800672100016F6F000E0001716F030E706FD0
:1012D8006FEC17F03F0E00016E25F66E7E0E0001D2
:1012E8006F21F76E0900F5CF74F00900F5CF75F09E
:1012F8000A00F5CF76F0000E0001716F030E706FD3
:10130800000E0001636F0A0E626F0001895100012F
:10131800606F616B60BF610747EC15F060C06EF0ED
:1013280061C06FF06FEC17F03F0E00016E25F66E8E
:101338007E0E00016F21F76E0900F5CF77F00900E6
:10134800F5CF78F00A00F5CF79F0DAEC0FF096D700
:1013580000018951030D3F0EF324F66E7E0EF42032
:10136800F76E0900F5CF83F00900F5CF84F00A0085
:10137800F5CF85F0120000018951800A120FD8A01C
:10138800ACD0000E0001716F030E706F000E0001EB
:10139800696F0A0E686F000E0001636F640E626F5A
:1013A800000189510001606F616B60BF610747EC04
:1013B80015F060C066F061C067F033EC14F0090EF8
:1013C8000001662500016E6F000E00016721000113
:1013D8006F6F6FEC17F0660E00016E25F66E7E0ECD
:1013E80000016F21F76E0900F5CF77F00900F5CFFE
:1013F80078F00A00F5CF79F0000E0001696F640EED
:10140800686F000189510001666F676B66BF6707E7
:1014180033EC14F0120E0001662500016E6F000E09
:101428000001672100016F6F000E0001716F030E4C
:10143800706F6FEC17F0660E00016E25F66E7E0E6B
:1014480000016F21F76E0900F5CF74F00900F5CFA0
:1014580075F00A00F5CF76F0DAEC0FF074C086F07C
:1014680075C087F076C088F086C074F087C075F0C4
:1014780088C076F0000E0001716F030E706F000EC9
:101488000001636F0A0E626F000189510001606FED
:10149800616B60BF610747EC15F060C06EF061C01A
:1014A8006FF06FEC17F0660E00016E25F66E7E0E7B
:1014B80000016F21F76E0900F5CF77F00900F5CF2D
:1014C80078F00A00F5CF79F0DAEC0FF074C083F009
:1014D80075C084F076C085F0120000018951800A39
:1014E800750FD8A05DD0000E0001696F0A0E686FF5
:1014F800000189510001666F676B66BF670733ECAF
:1015080014F0090E0001662500016E6F000E00013F
:10151800672100016F6F000E0001716F030E706F7D
:101528006FEC17F0660E00016E25F66E7E0E000158
:101538006F21F76E0900F5CF74F00900F5CF75F04B
:101548000A00F5CF76F0000E0001716F030E706F80
:10155800000E0001636F0A0E626F000189510001DD
:10156800606F616B60BF610747EC15F060C06EF09B
:1015780061C06FF06FEC17F0660E00016E25F66E15
:101588007E0E00016F21F76E0900F5CF77F0090094
:10159800F5CF78F00A00F5CF79F0DAEC0FF096D7AE
:1015A80000018951030D660EF324F66E7E0EF420B9
:1015B800F76E0900F5CF83F00900F5CF84F00A0033
:1015C800F5CF85F0120000018C6F6D0E00018C655F
:1015D800BAD0000E0001716F030E706F000E00018B
:1015E800696F0A0E686F000E0001636F640E626F08
:1015F8008CC060F00001616B47EC15F060C066F0CC
:1016080061C067F033EC14F0090E00016625000193
:101618006E6F000E0001672100016F6F6FEC17F00D
:101628003F0E00016E25F66E7E0E00016F21F76EEB
:101638000900F5CF77F00900F5CF78F00A00F5CF6B
:1016480079F0000E0001696F640E686F8CC066F057
:101658000001676B33EC14F0120E000166250001DF
:101668006E6F000E0001672100016F6F000E000110
:10167800716F030E706F6FEC17F03F0E00016E254F
:10168800F66E7E0E00016F21F76E0900F5CF74F03B
:101698000900F5CF75F00A00F5CF76F0DAEC0FF017
:1016A80074C089F075C08AF076C08BF0000E000116
:1016B800716F030E706F000E0001636F0A0E626F88
:1016C8008CC060F00001616B47EC15F060C06EF0F3
:1016D80061C06FF06FEC17F03F0E00016E25F66EDB
:1016E8007E0E00016F21F76E0900F5CF77F0090033
:1016F800F5CF78F00A00F5CF79F089C074F08AC088
:1017080075F08BC076F0DAEC0FF074C086F075C017
:1017180087F076C088F086C074F087C075F088C0FE
:1017280076F0000E0001776F000E0001786F3F0E13
:101738000001796FDAEC0FF074C083F075C084F0A3
:1017480076C085F012000A0E00018C656ED0000E7E
:101758000001716F030E706F000E0001636F0A0EB7
:10176800626F8CC060F00001616B47EC15F060C0DF
:101778006EF061C06FF06FEC17F03F0E00016E2540
:10178800F66E7E0E00016F21F76E0900F5CF77F037
:101798000900F5CF78F00A00F5CF79F0000E0001C6
:1017A800696F0A0E686F8CC066F00001676B33ECD6
:1017B80014F0090E0001662500016E6F000E00018D
:1017C800672100016F6F000E0001716F030E706FCB
:1017D8006FEC17F03F0E00016E25F66E7E0E0001CD
:1017E8006F21F76E0900F5CF74F00900F5CF75F099
:1017F8000A00F5CF76F0DAEC0FF074C089F075C006
:101808008AF076C08BF089C074F08AC075F08BC0FE
:1018180076F0000E0001776F000E0001786F3F0E22
:101828000001796FDAEC0FF087D700018C51030DB6
:101838003F0EF324F66E7E0EF420F76E0900F5CF06
:1018480074F00900F5CF75F00A00F5CF76F0000EB8
:101858000001776F000E0001786F3F0E0001796F6D
:10186800DAEC0FF074C083F075C084F076C085F0B0
:1018780012008FC093F00001946B956B00018E35B8
:101888000001933701E39481000193510001986F9F
:1018980092C093F00001946B956B000191350001A3
:1018A800933701E39481000193510001976F000180
:1018B80098510001D8B411D0000197510001985DEA
:1018C800D8B012D0000198510008000197250001F6
:1018D800936F180E0001936507D090C08DF091C0EA
:1018E8008EF092C08FF01200000197510001D8B419
:1018F80011D0000198510001975DD8B012D00001B5
:1019080097510008000198250001936F180E0001F7
:10191800936507D08DC08DF08EC08EF08FC08FF08C
:101928001200060E0001966F00018FAF02D0000171
:10193800968F000192AF02D00001968D00018E8F24
:10194800FF0E00018D17FF0E00018E17000E00011B
:101958008F170001918FFF0E00019017FF0E0001F5
:101968009117000E00019217000197510001985D30
:10197800D8B025D00001D890903791379237000120
:1019880097070001985100019719D8B411D00001A8
:10199800960796C093F0070E00019317D8B408D0A5
:1019A800E9D70001D8908F338E338D330001982BFF
:1019B8000001975100019819D8B42BD0F2D7000133
:1019C80098510001975DD8B024D00001D8908D3788
:1019D8008E378F3700019807000198510001971939
:1019E800D8B411D00001960796C093F0070E0001F5
:1019F8009317D8B408D0E9D70001D890923391331F
:101A080090330001972B0001975100019819D8A431
:101A1800F3D7000196AF12D0FF0E00018D1BFF0E09
:101A280000018E1BFF0E00018F1B010E00018D2788
:101A3800000E00018E23000E00018F23000196ADD9
:101A480012D0FF0E0001901BFF0E0001911BFF0E2C
:101A58000001921B010E00019027000E0001912346
:101A6800000E00019223000E0001966F00018D51B7
:101A78000001902700018E510001912300018F5130
:101A880000019223000192AF15D0FF0E0001901BB8
:101A9800FF0E0001911BFF0E0001921B010E0001B9
:101AA8009027000E00019123000E00019223010EE1
:101AB8000001966F90C060F091C061F092C062F032
:101AC80098C063F096C064F05CEC12F060C08DF0D2
:101AD80061C08EF062C08FF0120029C02DF02E6A0E
:101AE8002F6A28342D3601E32E802D50326E2CC0FB
:101AF8002DF02E6A2F6A2B342D3601E32E802D50BF
:101B0800316E3250D8B40BD03150325CD8B00ED0D0
:101B18003250000831242D6E180E2D6407D02AC0CB
:101B280027F02BC028F02CC029F012003150D8B46F
:101B38000BD03250315CD8B00ED03150000832246E
:101B48002D6E180E2D6407D027C027F028C028F066
:101B580029C029F01200060E306E29BE308E2CBE28
:101B6800308C288EFF0E2716FF0E2816000E291619
:101B78002B8EFF0E2A16FF0E2B16000E2C16315038
:101B8800325CD8B01BD0D8902A362B362C3631068A
:101B980032503118D8B40DD0300630C02DF0070EB1
:101BA8002D16D8B406D0EFD7D8902932283227324C
:101BB800322A31503218D8B41FD0F6D73250315C9F
:101BC800D8B01AD0D890273628362936320632505F
:101BD8003118D8B40DD0300630C02DF0070E2D16B0
:101BE800D8B406D0EFD7D8902C322B322A32312AEB
:101BF80031503218D8A4F7D730AE0CD0FF0E271AC0
:101C0800FF0E281AFF0E291A010E2726000E282279
:101C1800000E292230AC0CD0FF0E2A1AFF0E2B1A08
:101C2800FF0E2C1A010E2A26000E2B22000E2C2243
:101C3800000E306E27502A2628502B2229502C229D
:101C48002CAE0ED0FF0E2A1AFF0E2B1AFF0E2C1ADE
:101C5800010E2A26000E2B22000E2C22010E306EB9
:101C68002AC001F02BC002F02CC003F032C004F0EF
:101C780030C005F0F0EC14F001C027F002C028F0E5
:101C880003C029F0120062C066F00001676B686B40
:101C9800000161350001663701E367810001665183
:101CA80000016E6F00016E51D8A40AD0000E000129
:101CB800606F000E616F000E626F000E636F12009E
:101CC80065C066F00001676B686B00016435000150
:101CD800663701E367810001665100016D6F0001FD
:101CE8006D51D8A40AD0000E0001606F000E616F1C
:101CF800000E626F000E636F12000001618FFF0E0D
:101D080000016017FF0E00016117000E0001621745
:101D18000001648FFF0E00016317FF0E00016417B6
:101D2800000E00016517000E0001696F000E6A6F52
:101D3800000E6B6F000E6C6F7F0E00016E5F00016E
:101D48006D51980F00016E5F180E00016D6F000154
:101D5800D89069376A376B376C37000163510001D7
:101D6800605D000164510001615900016551000185
:101D78006259D8A00ED0000163510001605F0001D4
:101D880064510001615B000165510001625B000163
:101D980069810001D89060376137623700016D2F83
:101DA800D6D700016EAF1AD000016E51800A970F86
:101DB800D8B00AD0000E0001606F000E616F000EEF
:101DC800626F000E636F12000001D8906C336B33A2
:101DD8006A33693300016E3FF7D71BD0170E000135
:101DE8006E6512D0000E0001606F000E616F000E6C
:101DF800626F000E636F12000001D89069376A376E
:101E08006B376C3700016E0700016E510001D8A4D2
:101E1800F3D769C060F06AC061F06BC062F06CC053
:101E280063F0120000016235633500016B6F000139
:101E38006B51D8A40AD0000E0001606F000E616FCC
:101E4800000E626F000E636F120000016535663583
:101E580000016A6F00016A51D8A40AD0000E00017F
:101E6800606F000E616F000E626F000E636F1200EC
:101E78000001628FFF0E00016017FF0E6117FF0E51
:101E88006217000E63170001658FFF0E00016317CC
:101E9800FF0E6417FF0E6517000E6617000E00018F
:101EA800666F000E676F000E686F000E696F7F0E19
:101EB80000016B5F00016A51A00F00016B5F200EEB
:101EC80000016A6F0001D89066376737683769374D
:101ED800000163510001605D000164510001615916
:101EE8000001655100016259000166510001635902
:101EF800D8A012D0000163510001605F0001645155
:101F08000001615B000165510001625B00016651DF
:101F18000001635B000166810001D890603761377A
:101F28006237633700016A2FCDD700016BAF1AD033
:101F380000016B51800A9F0FD8B00AD0000E000133
:101F4800606F000E616F000E626F000E636F12000B
:101F58000001D890693368336733663300016B3FFB
:101F6800F7D71BD01F0E00016B6512D0000E0001C1
:101F7800606F000E616F000E626F000E636F1200DB
:101F88000001D890663767376837693700016B07F3
:101F980000016B510001D8A4F3D766C060F067C098
:101FA80061F068C062F069C063F0120076C07AF030
:101FB80000017B6B7C6B0001753500017A3701E30A
:101FC8007B8100017A5100017D6F00017D51D8A409
:101FD8000AD0000E0001746F000E0001756F000E2C
:101FE8000001766F120079C07AF000017B6B7C6B80
:101FF8000001783500017A3701E37B8100017A51CD
:102008000001826F00018251D8A40AD0000E00019D
:10201800746F000E0001756F000E0001766F1200DC
:10202800000182517B0F00017D2776C082F00001FC
:1020380079510001821B800E000182170001758F03
:102048000001788FFF0E00017717FF0E0001781747
:10205800000E00017917000E00017E6F000E0001CE
:102068007F6F000E0001806F070E0001816F000175
:1020780074A10CD00001775100017E27000178512E
:1020880000017F2300017951000180230001D890CD
:102098007633753374330001D890773778377937CA
:1020A8000001812FE4D7090E0001816F000174A19E
:1020B8000CD00001775100017E2700017851000102
:1020C8007F2300017951000180230001D8907633E5
:1020D800753374330001D89080337F337E33000129
:1020E800812FE4D77EC060F07FC061F080C062F0CD
:1020F8007DC063F082C064F05CEC12F060C074F0E4
:1021080061C075F062C076F012008CC08EF00001DC
:102118008F6B906B00018B3500018E3701E38F8147
:1021280000018E510001986F00019851D8A40AD07F
:10213800000E00018A6F000E8B6F000E8C6F000E70
:102148008D6F1200170E00018E6F8AC08FF08BC042
:1021580090F08CC091F000018E290001926F05D09B
:102168000001D890913390338F330001922FF8D724
:1021780000018F510001936F00018B8FFF0E00014A
:102188008A17FF0E00018B17000E00018C17000143
:102198008A510001946F00018B510001956F000175
:1021A8008C510001966F0001976B8E0E0001985FAD
:1021B800000198AF1AD000019851800A8F0FD8B04B
:1021C8000AD0000E00018A6F000E8B6F000E8C6F14
:1021D800000E8D6F12000001D89097339633953317
:1021E80094330001983FF7D71BD0170E000198656C
:1021F80012D0000E00018A6F000E8B6F000E8C6FDC
:10220800000E8D6F12000001D890943795379637DD
:10221800973700019807000198510001D8A4F3D717
:10222800000193510001D8B409D00001971F961FEF
:10223800951F946D000E95239623972394C08AF0DA
:1022480095C08BF096C08CF097C08DF01200F00E00
:10225800936EFE0E8A6E8150F00B0001F06FF0C095
:10226800F2F0F00E0001F019D8B40ED0000E000103
:10227800F16F04D08150F00B0001F26FF00E0001F5
:10228800F219D8B451D0F6D7FD0E8A6E8150F00BF2
:102298000001F06FF0C0F2F0F00E0001F019D8B4B0
:1022A8000ED0010E0001F16F04D08150F00B000137
:1022B800F26FF00E0001F219D8B436D0F6D7FB0E43
:1022C8008A6E8150F00B0001F06FF0C0F2F0F00E52
:1022D8000001F019D8B40ED0020E0001F16F04D03D
:1022E8008150F00B0001F26FF00E0001F219D8B422
:1022F8001BD0F6D7F70E8A6E8150F00B0001F06FF5
:10230800F0C0F2F0F00E0001F019D8B4A2D7030E15
:102318000001F16F04D08150F00B0001F26FF00E54
:102328000001F219D8A4F7D7E00E0001F019D8A4DB
:102338000BD00001F151040D460EF324D96E000EA6
:10234800F420DA6EDF501200D00E0001F019D8A484
:1023580005D00001F151040D010E13D0B00E00019B
:10236800F019D8A405D00001F151040D020E09D0CE
:10237800700E0001F019D8A4D7D70001F151040D4F
:10238800030EF326000EF422D7D70600FACF35F055
:10239800FBCF36F0E9CF37F0EACF38F0E1CF39F0AC
:1023A800E2CF3AF0D9CF3BF0DACF3CF0F3CF3DF0B3
:1023B800F4CF3EF0F6CF3FF0F7CF40F0F8CF41F042
:1023C800F5CF42F0C350C4CF33F0346A33C034F091
:1023D800336A3310096E34500A6E53EC17F009C093
:1023E80056F00AC057F00BC058F0000E2A6EFA0ECD
:1023F8002B6EC30E2C6E000E1B6E800E1C6E440ED0
:102408001D6E400E0C6E9C0E0D6E450E0E6E56C067
:1024180009F057C00AF058C00BF0E2EC12F009C0FE
:1024280018F00AC019F00BC01AF05CEC13F018C0D1
:1024380027F019C028F01AC029F071EC0DF027C058
:1024480043F028C044F029C045F043C018F044C008
:1024580019F045C01AF0000E1B6E200E1C6E410EBE
:102468001D6E5CEC13F018C0EDF019C0EEF01AC048
:10247800EFF09E9C42C0F5FF41C0F8FF40C0F7FF57
:102488003FC0F6FF3EC0F4FF3DC0F3FF3CC0DAFF9B
:102498003BC0D9FF3AC0E2FF39C0E1FF38C0EAFFCC
:1024A80037C0E9FF36C0FBFF35C0FAFF599211006B
:1024B800000163510001D8B408D000016051000147
:1024C800611100016211D8A411D0000E0001606FE3
:1024D800000E0001616F000E0001626F1200000122
:1024E800632B0001D890623361336033000E000122
:1024F80060150001656F000E000161150001666F2F
:10250800FE0E000162150001676F000165510001B0
:10251800661100016711D8B411D0E1D70001632B0F
:10252800010E00016027000E00016123000E00016A
:1025380062230001D890623361336033000E0001DA
:1025480060150001656F000E000161150001666FDE
:10255800FF0E000162150001676F0001655100015F
:10256800661100016711D8B408D0D8D700016307F5
:102578000001D890603761376237000161BF04D02D
:10258800020E00016361F2D7000163B102D00001BD
:10259800619F0001D8906333000163510001621309
:1025A800000164510001D8B402D00001628F60C0FC
:1025B80060F061C061F062C062F012000BC00FF001
:1025C800106A116A0A340F3601E310800F50126E38
:1025D8001250D8A407D0000E096E000E0A6E000E25
:1025E8000B6E12000EC00FF0106A116A0D340F3610
:1025F80001E310800F50176E1750D8A407D0000EB3
:10260800096E000E0A6E000E0B6E120017507B0F3B
:1026180012260BC017F00E50171A800E17160A8EC6
:102628000D8EFF0E0C16FF0E0D16000E0E16000E68
:10263800136E000E146E000E156E070E166E09A0AE
:1026480006D00C5013260D5014220E501522D89087
:102658000B320A320932D8900C360D360E36162E49
:10266800EED7090E166E09A006D00C5013260D5091
:1026780014220E501522D8900B320A320932D89003
:10268800153214321332162EEED713C001F014C0CF
:1026980002F015C003F012C004F017C005F0F0EC0A
:1026A80014F001C009F002C00AF003C00BF01200D8
:1026B8001AC01EF01F6A206A19341E3601E31F80F3
:1026C8001E50256E2550D8A407D0000E186E000E97
:1026D800196E000E1A6E12001DC01EF01F6A206AC5
:1026E8001C341E3601E31F801E50266E2650D8A4C7
:1026F80007D0000E186E000E196E000E1A6E12002A
:10270800000E226E000E236E000E246E2650890FD6
:10271800255E1AC026F01D50261A800E2616198E20
:10272800FF0E1816FF0E1916000E1A161C8EFF0E35
:102738001B16FF0E1C16000E1D16180E216ED890C3
:102748002236233624361B50185C1C5019581D504D
:102758001A58D8A007D01B50185E1C50195A1D5083
:102768001A5A2280D890183619361A36212EE7D7E9
:1027780022C001F023C002F024C003F025C004F0F9
:1027880026C005F0F0EC14F001C018F002C019F0F2
:1027980003C01AF01200000162AF1DD060C066F0DD
:1027A80061C067F062C068F00001661F671F681F9C
:1027B800662B000E67236823000E000166250001C2
:1027C800606F000E000167210001616F800E00013B
:1027D80068210001626F000165AF1DD063C066F01B
:1027E80064C067F065C068F00001661F671F681F56
:1027F800662B000E67236823000E00016625000182
:10280800636F000E000167210001646F800E0001F4
:1028180068210001656F000E0001601B000E0001B9
:10282800611B800E0001621B000E0001631B000E7D
:102838000001641B800E0001651B0001635100014B
:10284800605D00016451000161590001655100019A
:102858006259D8B002D0D8901200D8801200000E69
:1028680000016B6F000169AF08D00001686D691F36
:10287800D8B0692B010E00016B6F000167AF08D05B
:102888000001666D671FD8B0672B010E00016B1B36
:10289800000E00016D6F000E6C6F000168510001A1
:1028A8006911D8B42CD0010E00016A6F06D000015E
:1028B800D8906837693700016A2B000169AFF7D7EC
:1028C8000001D8906C376D37000168510001665DD2
:1028D8000001695100016759D8A00AD00001685168
:1028E8000001665F000169510001675B00016C81AE
:1028F8000001D8906933683300016A2FE1D70001DD
:102908006B510001D8B405D000016C6D6D1FD8B0B3
:102918006D2B6CC066F06DC067F01200000E0001F0
:10292800686F000E696F000E6A6F000E6B6F000112
:102938006451000165110001661100016711D8B4E6
:1029480042D0010E00016C6F08D00001D8906437A6
:1029580065376637673700016C2B000167AFF5D71D
:102968000001D890683769376A376B3700016451BE
:102978000001605D00016551000161590001665167
:10298800000162590001675100016359D8A012D0B3
:10299800000164510001605F000165510001615B45
:1029A800000166510001625B000167510001635B31
:1029B800000168810001D89067336633653364335A
:1029C80000016C2FCDD768C060F069C061F06AC0A3
:1029D80062F06BC063F012000450D8B405D0015007
:1029E80002100310D8A40CD0000E016E000E026E67
:1029F800000E036E1200042AD8900332023201320C
:102A0800000E0114066E000E0214076EFE0E03146B
:102A1800086E065007100810D8B40CD0ECD7042A5A
:102A2800010E0126000E0222000E0322D890033266
:102A380002320132000E0114066E000E0214076EF7
:102A4800FF0E0314086E065007100810D8B406D0FD
:102A5800E6D70406D89001360236033602BE03D004
:102A6800020E0460F6D704A0029ED89004320450E7
:102A780003120550D8A4038E01C001F002C002F071
:102A880003C003F01200000E0001656F000161AF82
:102A980008D00001606D611FD8B0612B010E0001E4
:102AA800656F000163AF05D00001626D631FD8B088
:102AB800632B0001625100016311D8B426D0010EC6
:102AC8000001646F06D00001D890623763370001B7
:102AD800642B000163AFF7D7000162510001605D0C
:102AE8000001635100016159D8A008D0000162516A
:102AF8000001605F000163510001615B0001D89033
:102B0800633362330001642FE7D700016551000188
:102B1800D8B405D00001606D611FD8B0612B60C0CA
:102B280060F061C061F0120000016451000165119C
:102B38000001661100016711D8B43AD0010E0001F6
:102B4800686F08D00001D8906437653766376737F3
:102B58000001682B000167AFF5D70001645100013F
:102B6800605D000165510001615900016651000175
:102B780062590001675100016359D8A010D00001C3
:102B880064510001605F000165510001615B000153
:102B980066510001625B000167510001635B00013F
:102BA800D89067336633653364330001682FD5D70F
:102BB80060C060F061C061F062C062F063C063F041
:102BC80012008E0E0001706F08D00001D8906B3390
:102BD8006A33693368330001702B000E00016815F1
:102BE80000016C6F000E0001691500016D6F000E89
:102BF80000016A1500016E6FFF0E00016B150001E0
:102C08006F6F00016C5100016D1100016E11000120
:102C18006F11D8A4DAD768C060F069C061F06AC0E3
:102C280062F070C063F0000E0001646F5CEC12F09B
:102C380060C068F061C069F062C06AF012000E0EF0
:102C4800F66E300EF76E000EF86E00EEF3F010EE32
:102C580007F00900F5CFEEFFE550E150FAE1F60E76
:102C6800F66E2F0EF76E000EF86E00EE46F010EEC0
:102C780010F00900F5CFEEFFE550E150FAE101EE62
:102C880000F0320EEE6AE806FDE100EEDFF0140E09
:102C9800EE6AE806FDE1586A576A566A59905992F1
:102CA800000EF86E0001ACEF05F00001676F67C019
:102CB80066F0F00E000166178C500F0B00016611CC
:102CC8008C6E8C808C8200F08C92000E0001616FFB
:102CD800010E606F2EEC17F067C066F00001663BCE
:102CE800F00E66178C500F0B000166118C6E8C82EB
:102CF80000F08C92000E0001616F030E606F2EECE5
:102D080017F012000001676F67C066F0F00E00014F
:102D180066178C500F0B000166118C6E8C908C829C
:102D280000F08C92000E0001616F010E606F2EECB6
:102D380017F067C066F00001663BF00E66178C500E
:102D48000F0B000166118C6E8C8200F08C92000EC5
:102D58000001616F030E606F2EEC17F0120006D0B1
:102D68000001604B612B0001624B632B60C0D9FFEF
:102D780061C0DAFFDF500001646F62C0D9FF63C031
:102D8800DAFFDF500008000164250001656F0001CB
:102D98006551D8A407D060C0D9FF61C0DAFFDF5001
:102DA800D8A4DED7000165510001606F616B60BF78
:102DB8006107120015D068C0F6FF69C0F7FFF86A0E
:102DC800070EF76403D00800F55005D0F6CFE9FFE9
:102DD800F7CFEAFFEF5059EC16F00001684B692B6A
:102DE80068C0F6FF69C0F7FFF86A070EF76403D0FA
:102DF8000800F55005D0F6CFE9FFF7CFEAFFEF500E
:102E08000009D8B41200D7D700019C5100019D11C8
:102E180000019E11D8B409D0000E00019C1B000EC1
:102E280000019D1B800E00019E1B99C08DF09AC069
:102E38008EF09BC08FF09CC090F09DC091F09EC01A
:102E480092F03DEC0CF08DC099F08EC09AF08FC0D6
:102E58009BF01200000E0001636F000E626F14D029
:102E6800000E0001656F000E646F0001655109E1F5
:102E7800A50E0001645DD8B004D00001644B652B39
:102E8800F4D70001624B632B000162510001605DC1
:102E98000001635100016159D8A01200E1D7000E6A
:102EA8000C6E0AAE06D0096C0A1ED8B00A2A010EAA
:102EB8000C6E09C001F00AC002F0036A8E0E046E9F
:102EC8000CC005F0F0EC14F001C009F002C00AF0E3
:102ED80003C00BF0120000016E5100017003F3CF24
:102EE80072F0F4CF73F000016E5100017103F350DA
:102EF8000001732700016F5100017003F3500001B6
:102F0800732772C06EF073C06FF0120060C066F075
:102F180061C067F009D066C0D9FF67C0DAFF62C038
:102F2800DFFF0001664B672B00016407D8A0650727
:102F380000016429F0E100016529D8B41200EBD73B
:102F4800000E956E000E0001616F0F0E606F2EEC83
:102F580017F0020E86EC16F0280E86EC16F0010E1D
:102F680086EC16F00C0E86EC16F0060E86EC16F0C3
:102F78001200000160510001611100016211D8B412
:102F880009D0000E0001601B000E0001611B800EBD
:102F98000001621B60C060F061C061F062C062F055
:102FA80012000001626F000E0001616F3A0E00010D
:102FB800626107D02F0E0001626503D0010E000187
:102FC800616F61C060F0000160311200000EC26ED6
:102FD8000E0EC16E920EC06E000EC46E000EC36E51
:102FE8009E9C9D8CF28CF28EC280C2821200373871
:102FF800392F3435362A3132332D20303D2B010E0E
:0D30080086EC16F0120031323334353700FB
:107E160000010000000A00000064000000E8030002
:107E26000010270000A086010040420F00809698AF
:107E36000000E1F50500CA9A3B00803FCDCC3DD756
:107E4600233C12833AB7D138C62737388635C0D691
:107E560033CC2B32708930E7DB2EE53C1E42A20D77
:107E660000803F00204100C842007A44401C465032
:107E7600C34724744997184BBCBE4C6B6E4E031512
:107E86005079AD60F34971566572696679206E6501
:107E9600772070617373202020202020202020204E
:107EA600202020202000456E746572206E657720A4
:107EB6007061737320202020202020202020202085
:107EC600202020004F7574206F66206D6F76652028
:107ED60021212120202020202020202020202000B9
:107EE6005375636365737366756C202020202020AC
:107EF60020202020202020202000456E746572203E
:107F06007061737321212020202020202020202032
:107F16002020200046616E207475726E696E67209F
:107F26006F66662020202020202020202000466129
:107F36006E207475726E696E67206F6E2020202029
:107F4600202020202020004368616E676520706134
:107F56007373204641494C4544202020202000468A
:107F660061696C65642020202020202020202020AC
:107F76002020202000456E5F70617373207072654B
:107F860073656E74202020202000746F2072656354
:107F960068616E676520706173732020202000433E
:107FA60068616E67652070617373204F4B202020D7
:107FB60020200054656D70657261747572653D258B
:107FC600302E31660020505245535320454E5F4BAC
:107FD60045592121200057454C434F4D4520544FCC
:107FE60020484F4D4521005072657373205245530A
:097FF60045545F50415353000053
:020000040020DA
:08000000FFFFFFFFFFFFFFFF00
:020000040030CA
:0E00000000091F1FFF8185FF0FC00FE00F409A
:00000001FF
